S00D00006F6E6978732E73726563E6
S11300000C942A000C9447000C9447000C9447006D
S11300100C9453000C9447000C9447000C94470034
S11300200C9447000C9447000C9449000C9447002E
S11300300C9447000C9447000C9447000C94470020
S11300400C9447000C9447000C9447000C94470010
S11300500C94470011241FBECFE5D8E0DEBFCDBF0E
S113006010E0A0E6B0E0EEE0F1E002C005900D92F1
S1130070A036B107D9F720E0A0E6B0E001C01D9298
S1130080A136B207E1F70E9482000C9485000C941B
S113009000001F920F920FB60F9211240F900FBE03
S11300A00F901F9018951F920F920FB60F92112464
S11300B08F939F939091600091110BC081E08927E9
S11300C0809360009F918F910F900FBE0F901F90AF
S11300D01895809100008E7F809300001FB8779B55
S11300E0FECF8FB11FB8779BFECF8FB180910000F8
S11300F081608093000086E08A95F1F700C09091BA
S11101006000DCCF80E090E00895F894FFCF1B
S9030000FC
