S00D00006F6E6978732E73726563E6
S11300000C9459000C9476000C9476000C947600B1
S11300100C9476000C9476000C9476000C94A0005A
S11300200C9476000C9476000C948F000C9476005B
S11300300C9476000C9476000C9476000C94760064
S11300400C9476000C9476000C9476000C94760054
S11300500C94760020204E4F204D454D4F5259218F
S1130060004D454D4F52592045584345454445445C
S11300702100414E204552524F52204F4343555286
S11300804544006C6F6164696E6720646174612E1D
S11300902E2E004F4E4958532076312E30002D2DF0
S11300A02D2D2D2D2D2D2D2D2D2D2D2D2D2D2D2D7C
S11300B0000011241FBECFE5D8E0DEBFCDBF20E095
S11300C0A6E6B0E001C01D92A937B207E1F710E03F
S11300D0A0E6B0E0E4E0FBE002C005900D92A63695
S11300E0B107D9F70E94EA000C9480050C94000033
S11300F09C012F5F3F4FFC018491882379F0F90123
S1130100C298C19A82BBC09A00C0C09881E28A9505
S1130110F1F70000849131968111F2CF08951F9276
S11301200F920FB60F9211248F9380916A00816011
S113013080936A008F910F900FBE0F901F901895B7
S11301401F920F920FB60F9211242F933F934F9348
S11301505F938F939F9390916A00892F826080931D
S11301606A002091680030916900203649E0340724
S113017008F52F5F3F4F409166005091670044306F
S1130180510528F1846080936A0041E050E0509367
S113019067004093660030936900209368009F9144
S11301A08F915F914F913F912F910F900FBE0F90C0
S11301B01F901895892F8A6080936A0021E030E0AF
S11301C0409166005091670044305105D8F64F5F66
S11301D05F4FDDCFCF93DF93CDB7DEB72C970FB64C
S11301E0F894DEBF0FBECDBFBB9AA29A8FEF81BB3E
S11301F012BA87B3876087BB88B3887F88BB88B30C
S1130200897F88BB80E382BBC09A00C0C09821E28A
S11302102A95F1F70000E1E0F8E03197F1F700C02A
S1130220000098B3997F98BB82BBC09A00C0C09865
S1130230F1E2FA95F1F7000022E42A95F1F700C003
S113024098B3997F98BB82BBC09A00C0C09881E2E2
S11302508A95F1F7000088B3897F88BB88E382BB65
S1130260C09A00C0C09891E29A95F1F7000088B353
S1130270897F88BB8CE082BBC09A00C0C098E1E251
S1130280EA95F1F7000088B3897F88BB81E082BBDF
S1130290C09A00C0C098F1E2FA95F1F7000086E038
S11302A093E00197F1F700C0000088B3897F88BB11
S11302B086E082BBC09A00C0C09891E29A95F1F79B
S11302C0000011B8019A84E086BF84EA86BF06B6AE
S11302D007FEFDCF80ED83B984E886BF06B607FE2E
S11302E0FDCF13B884E886BF06B607FEFDCF13B86A
S11302F084E886BF06B607FEFDCF84E986BF84EA9C
S113030086BF06B607FEFDCF80ED83B984E886BFBD
S113031006B607FEFDCF87E083B984E886BF06B63C
S113032007FEFDCF13B884E886BF06B607FEFDCFEF
S113033084E986BF87B3806B87BBC49A8DB180651F
S11303408DB9709A8EB18FB188B3897F88BB81E8EB
S113035082BBC09A00C0C098E1E2EA95F1F70000C0
S1130360FAE1FA95F1F78EE990E00E94780088B3FB
S1130370897F88BB85EC82BBC09A00C0C09821E20B
S11303802A95F1F700008AE18A95F1F783E990E074
S11303900E94780088B3897F88BB87E982BBC09AB2
S11303A000C0C09891E29A95F1F70000EAE1EA955D
S11303B0F1F783E890E00E94780088B3897F88BBD6
S11303C085ED82BBC09A00C0C098F1E2FA95F1F7BE
S11303D000002AE12A95F1F78EE990E00E94780066
S11303E0E199FECF82E090E00E947A058B879C879A
S11303F0E199FECF84E090E00E947A051C01E19926
S1130400FECF86E090E00E947A059A878987E19979
S1130410FECF88E090E00E947A056C0188B3897F62
S113042088BB81E082BBC09A00C0C09881E28A95F3
S1130430F1F70000E6E0F3E03197F1F700C00000C7
S113044088B3897F88BB80E882BBC09A00C0C0980B
S1130450F1E2FA95F1F700002AE12A95F1F7C29842
S1130460C19A8EE582BBC09A00C0C09881E28A9589
S1130470F1F700008E010F5F1F4F86E0F801119223
S11304808A95E9F74AE0B801C6010E9435058981D9
S1130490882379F0F801C298C19A819182BBC09AED
S11304A000C0C09891E29A95F1F700008081811113
S11304B0F2CFFFEF24E38CE0F15020408040E1F7DD
S11304C000C00000C114D10409F055C011E088B384
S11304D0897F88BB81E882BBC09A00C0C098E1E2F2
S11304E0EA95F1F70000FAE1FA95F1F78EE990E068
S11304F00E94780088B3897F88BB82EC82BBC09A53
S113050000C0C09821E22A95F1F700008AE18A959B
S1130510F1F782E790E00E94780088B3897F88BB76
S113052086E982BBC09A00C0C09891E29A95F1F71F
S11305300000EAE1EA95F1F71330C1F084E590E0B8
S11305400E94780088B3897F88BB85ED82BBC09AFE
S113055000C0C098F1E2FA95F1F700002AE12A956B
S1130560F1F78EE990E00E947800FFCF81E690E0F9
S11305700E947800E7CF5601AA0CBB1CC5010E945B
S113058014047C01892B09F436C1E199FECFA5013D
S11305906AE070E0C7010E946A05F886EF822701CD
S11305A0A12CB12CF20180819181E199FECF880FB9
S11305B0991F0E947A05880F991F3C01FFEF6F1A5B
S11305C07F0A88B3897F88BB21E022BBC09A00C020
S11305D0C09881E28A95F1F70000E6E0F3E03197F4
S11305E0F1F700C0000088B3897F88BBF0ECF2BB50
S11305F0C09A00C0C09821E22A95F1F700008AE170
S11306008A95F1F7F80126E011922A95E9F74AE074
S1130610B801C3010E9435058981882379F0F80166
S1130620C298C19A819182BBC09A00C0C09821E24D
S11306302A95F1F7000080818111F2CF8FEF94E3C6
S1130640ECE081509040E040E1F700C00000660C0F
S1130650771CC3010E9414044C01892B09F4CDC0FA
S1130660E199FECFF20160817181660F771FA301CA
S1130670C4010E946A05F201819291922F01FFEF59
S1130680AF1ABF0ACA14DB0409F08CCF2B85209360
S11306906B008C8580936C0030926E0020926D000C
S11306A0E985FA85F0937000E0936F00D0927200B0
S11306B0C0927100F0927400E092730083B78D6071
S11306C083BF89B7826089BF84EF8CBF8EB58D608C
S11306D08EBD89B7886189BF88EE91E09BBD8ABDD4
S11306E0789482E0B82E9FE5C92E26E0F22E3AE3F4
S11306F0D32EEE24E39488B3897F88BBB2BAC09A20
S113070000C0C09881E28A95F1F70000E6E0F3E0CA
S11307103197F1F700C00000C298C19AC2BAC09ADA
S113072000C0C098F1E2FA95F1F7000080916F00E3
S113073090917000F8012F2D11922A95E9F74AE063
S1130740B8010E9435058981882379F0F801C2989F
S1130750C19A819182BBC09A00C0C09881E28A95F7
S1130760F1F7000080818111F2CFC298C19AD2BA08
S1130770C09A00C0C09881E28A95F1F70000E09128
S11307807300F09174000190F081E02D80819181DB
S1130790F8012F2D11922A95E9F74AE0B8010E9439
S11307A035058981882379F0F801C298C19A81912D
S11307B082BBC09A00C0C09891E29A95F1F70000FC
S11307C080818111F2CFEFE4F3EC3197F1F700C0AF
S11307D0000088B3897F88BBE2BAC09A00C0C09881
S11307E0F1E2FA95F1F7000086E093E00197F1F762
S11307F000C0000080CF13E06ACEA114B10479F0E8
S113080000E010E0EF81F88581919191F887EF8302
S11308100E94AC040F5F1F4F0A151B0599F7C7010F
S11308200E94AC0413E053CE0F931F93CF93DF9336
S11308308230910510F482E090E0E0917700F0912D
S1130840780020E030E0A0E0B0E0309719F140817A
S113085051810281138148175907C8F084179507FD
S113086069F4109731F012960C93129713961C9317
S113087027C0009377001093780022C0211531051A
S113088019F04217530718F49A01BD01EF01DF0173
S1130890F801DBCF21153105F9F0281B390B243081
S11308A0310580F48A819B816115710521F0FB017A
S11308B09383828304C09093780080937700FE0131
S11308C0329644C0FE01E20FF31F819391932250AC
S11308D03109398328833AC020917500309176001C
S11308E0232B41F420916200309163003093760011
S11308F0209375002091600030916100211531052D
S113090041F42DB73EB74091640050916500241B1B
S1130910350BE0917500F0917600E217F307A0F42F
S11309202E1B3F0B2817390778F0AC014E5F5F4F41
S11309302417350748F04E0F5F1F509376004093FD
S113094075008193919302C0E0E0F0E0CF01DF9164
S1130950CF911F910F910895CF93DF93009709F4DE
S113096081C0FC01329713821282A0917700B0916A
S11309707800109781F420813181820F931F209198
S11309807500309176002817390751F5F0937600F9
S1130990E093750067C0ED0120E030E0CE17DF077B
S11309A040F44A815B819E0141155105F1F0EA0151
S11309B0F5CFD383C28340815181840F951FC8171B
S11309C0D90759F488819981840F951F02969183E0
S11309D080838A819B81938382832115310529F445
S11309E0F0937800E09377003DC0E901FB83EA834C
S11309F049915991C40FD51FEC17FD0761F480810B
S1130A009181840F951F0296E901998388838281DD
S1130A1093819B838A83E0E0F0E012968D919C9110
S1130A201397009719F0FD01DC01F7CF8D919C918C
S1130A3011979D012E5F3F4F820F931F20917500E8
S1130A40309176002817390769F4309729F4109209
S1130A5078001092770002C013821282B09376005D
S1130A60A0937500DF91CF910895BB274A3031F4EC
S1130A70992322F4BDE2909581959F4F0C944105F2
S1130A80BB27FB015527AA27880F991FAA1FA41764
S1130A9010F0A41B83955051B9F7A05DAA3308F058
S1130AA0A95DA193009779F7B111B1931192CB018C
S1130AB00C945A05DC01FC01672F71917723E1F74F
S1130AC0329704C07C916D9370836291AE17BF0717
S1130AD0C8F30895DC01CB01FC01E199FECF06C007
S1130AE0FFBBEEBBE09A31960DB20D9241505040DF
S1130AF0B8F70895A8E1B0E042E050E00C946C052A
S1070B00F894FFCF93
S1090B040000790020004E
S9030000FC
